:020000040000FA
:10000000004000209D900100D9900100DB9001008C
:1000100000000000000000000000000000000000E0
:10002000000000000000000000000000DD90010062
:100030000000000000000000DF900100E1900100DE
:10004000E390010009310000E1970100E390010015
:10005000E3900100000000009D910100E390010089
:1000600055060000519D010055960100E3900100E6
:10007000E3900100E3900100E3900100E3900100B0
:10008000E3900100E3900100E3900100E3900100A0
:10009000E39001001D8E0100358D010091070000E5
:1000A000A1070000E3900100000000000000000034
:1000B0000000000000000000000000000000000040
:1000C00010B5064C2378002B07D1054B002B02D02E
:1000D000044800E000BF0123237010BD2001002070
:1000E00000000000C8C40300044B10B5002B03D06F
:1000F0000349044800E000BF10BDC04600000000F6
:1001000024010020C8C40300164B002B00D1144B5F
:100110009D46402292029A1A924600218B460F4633
:100120001348144A121A28F091FF0F4B002B00D0ED
:1001300098470E4B002B00D0984700200021040068
:100140000D000D48002802D00C4800E000BF20F050
:1001500021FD2000290028F0CFFC20F067FCC046DC
:100160000000080000400020000000000000000027
:1001700018010020E02F0020000000000000000017
:1001800010B50400034B0360403027F0ECF9200069
:1001900010BDC046E092020010B50F4C200028F0C0
:1001A000E4FB002808D0200028F0B1FB0B4B1B68B3
:1001B000984202D109F09CFC10BD3F21084A1388E7
:1001C00001330B40074909888B42F5D01188064C52
:1001D00013806054F0E7C0463C010020D02F00207F
:1001E000BC2D0020BE2D0020C62D0020002210B501
:1001F000044B05491A80054B05481A8028F0BAFBC4
:1002000010BDC046BC2D002099010000BE2D00206D
:100210003C010020034B1888034B1B88C01A431E67
:1002200098417047BE2D0020BC2D0020084A094B84
:1002300010881988884201D130BFF9E71388064930
:10024000C85C3F21138801330B4013807047C046C0
:10025000BE2D0020BC2D0020C62D002070B504004E
:100260004518AC4205D02178024828F054FB0134EF
:10027000F7E770BD3C01002070B504004518AC42A2
:100280000DD02378064E0A2B03D10D21300028F023
:1002900042FB2178300028F03EFB0134EFE770BDCF
:1002A0003C01002070B504000825002C08D0210076
:1002B000082C00D929000348641AFFF7CFFFF4E7A0
:1002C00070BDC046AF1A030070B5050004000826D3
:1002D000002C08D02100082C00D931000448641AF1
:1002E000FFF7BCFFF4E72800FFF7DCFF70BDC04656
:1002F000A61A030010B50100014821F09AFF10BDB5
:1003000014000020142313B5064C00931922182161
:10031000200017F023FB044A0449200028F009FEBE
:1003200013BDC0463C0100200000002081010000F8
:1003300010B5034B186827F07CFA22F034F810BD92
:10034000B02A002010B5034B186827F079FA22F084
:100350002AF810BDB02A002010B5034B186827F00A
:1003600076FA22F020F810BDB02A00201FB5002137
:10037000032005F00DFD0A4B0400196801A827F0C1
:100380004BFA019822F00FF8A060029822F00BF8C7
:10039000E060039822F007F82061200004B010BD4F
:1003A000B02A002010B501F0B5F80023064A9900E4
:1003B0008958814205D001330C2BF8D103480BF04A
:1003C0007FF8180010BDC046E8920200B81A03007A
:1003D000094A70B51378002B0DD1084D2C78E4B282
:1003E000002C08D1013313702B70054B186803687B
:1003F0005B6898472C7070BD062E0020072E0020E9
:10040000B02A002010B5FFF7E3FF054B186827F06E
:100410003FFA044B8000C3580620DB00184310BD90
:10042000B02A0020E892020010B50800FFF7BAFFDA
:100430000400FFF7CDFF054B186827F029FA044B9D
:10044000A04200D0034B180010BDC046B02A0020C7
:1004500010AE020008AE020010B50800FFF7A2FFC0
:100460000400FFF7B5FF0123A340064A06481188A0
:100470000B4200D105481188994311800022044B9A
:100480001A7010BDC02D002010AE020008AE020090
:10049000102E0020F8B5FFF79BFF134C134823786C
:1004A000002B1FD020780021C0B205F071FC01267E
:1004B00000220F4F2378934212D915005308FB5C9A
:1004C0003540AD002B410F252B400A4D9B005B5959
:1004D00006259100DB0041182B438B600132E9E7D0
:1004E00000232370F8BDC046102E0020A8A40200EF
:1004F000082E0020E892020070B543885A1E0A2A8E
:100500001FD801252A009A400F490888024392B259
:100510000E480A8002780F2A13D802780C4CEA4061
:10052000A25C0678D2B20F212E420BD00A401B01EA
:1005300013430278DBB25208A35403780133DBB2D1
:10054000037070BD8A43F3E7C02D0020102E0020F9
:10055000082E002070B505000C200C0021F029FAAF
:10056000024B45600360846070BDC046E8930200A2
:100570008022044B52001A600123034A1360034A8D
:100580001360704700E100E00C8C004000800040E8
:100590008022054B5200DA67044BFF3A5A60002272
:1005A000034B1A607047C04604E100E00080004041
:1005B0000C8C004070B5002501261E4B1E4C1D60A2
:1005C0001E4B18601E4BE650C046FFF7E1FF1D4B67
:1005D0001D4AE660E25002221C4BFF20E550043326
:1005E000E25008339218E250C12380229B0012038C
:1005F000E250053BFF3BE550C2244022144BA400CF
:10060000195981430A4380211A510C341A59090699
:100610001202120A0A431A51C022043419598143A2
:100620000A431A51802212041A60802252041A606E
:1006300070BDC046782E002000800040AC01002034
:10064000FC0F00004C0500007017000004050000BE
:1006500000E100E070B51F4C1F4D636C002B0AD009
:10066000002363641D4B1B689847A823DB00EA58EE
:1006700000018018E850A36C002B09D00023A3646C
:10068000164B5B689847164B0001EA588018E850F3
:10069000E36C002B0AD00023E364104B9B6898475F
:1006A000A923DB00EA5800018018E850236D002BD5
:1006B0000ED000230B4A2365AB580B495B18AB5097
:1006C0000A4A1368063313608022094B12045A60E9
:1006D00070BDC046FC800040008000400400002047
:1006E000440500004C05000070170000782E002023
:1006F000FCE100E0F7B50191032823D8134B8000FB
:10070000C758C223124D9B00EF50012344192364A4
:10071000A8230F210F4EDB009C46E358AE59921BD5
:10072000D218D3170B409A1801990B4B1211C150D4
:10073000C1239B00EF50634600200132120196193D
:10074000E650FEBD01204042FBE7C0462494020073
:10075000008000404C0500000400002003280BD856
:10076000074B8000C158C223064A9B00D150064B5C
:10077000064AC2500020704701204042FBE7C046B5
:100780002494020000800040040000202B18020086
:1007900010B5024B1B68984710BDC046AC01002045
:1007A00010B50024054AA1008B58002B02D0002070
:1007B000885098470134042CF4D110BD9C010020CE
:1007C000074A89008B58002B06D1885080211800D9
:1007D000044A49045160704701204042FBE7C0468B
:1007E0009C010020FCE100E0F0B5060087B000AFFE
:1007F0007B60F960BA600EF08DFEB06825F0FEFBFC
:100800003861B06825F000FC25F0F8FB032358435D
:100810003B69C01883001D007B6114352C2B2CD83C
:100820006B460E35ED08ED005B1B9D4600236C46C4
:100830007B61002326606360BA687B68F9682000EA
:1008400011F0AEFC154D00216B6820002361736828
:100850006B6005F079FC2369061E6B6013D1A368F9
:100860001D687B69002B04D0200021F0D1F8002EF8
:1008700011D12800BD4607B0F0BD280021F0A6F830
:10088000041ED6D1CCE73B6903339B00E3185D68B7
:100890007B69002BE8D128000DF0FAFC7C2E0020AB
:1008A0000122030030B5134085B004004510002B31
:1008B00014D125491D00884210D0244988420DD00A
:1008C000234B1500984209D00323034009D1214A44
:1008D0000168914205D121F0A3FD0500280005B073
:1008E00030BD1D4A25002240062A05D0002B08D124
:1008F0001A4B22689A4204D101A9200001F040FA63
:10090000EBE7200008F038FE154B984207D1FF2393
:10091000DB05E018032398431AF0AEFCDDE7114B2A
:10092000984202D0104B984206D101AA6946200095
:1009300008F0ACFF019DD1E7022201A9200022F0BE
:1009400098FB0028CAD0F5E7F8EA020008AE0200DA
:1009500010AE0200B4ED0200070080FF04B50200F3
:1009600078CF0200B0A40200949B0200F7B5060005
:100970000F0000920193041E00D044683800431E0B
:10098000984120180430800021F013F80C4B05002A
:1009900003600C4B5B684360009B8360019BC360FA
:1009A000002E05D03100A2000831103028F032FBB3
:1009B000002F02D00434A40067512800FEBDC046B9
:1009C0006C9402007C2E002070B5060010200D00F3
:1009D000140020F0EEFF034B466085600360C460A6
:1009E00070BDC04630940200F0B58BB0079310ABD9
:1009F00010CB009001911B78062A12D8012A08D941
:100A00003F230B700B0001330193002301990B70FE
:100A100001E0002AF9D101209042804140420BB010
:100A2000F0BD0099002929DA019B01995F1C2D2353
:100A30000B70802109068C46009B63440093019B48
:100A4000FF210993009BC90518000840884222D164
:100A500020234E21079AF81C1A4013001143009AD4
:100A6000540212D149225A403A70462253407970BA
:100A7000BB700023FB70019BC01AD0E7019F002BC5
:100A8000DDD0390001370B70D9E74124634039705C
:100A90007B70B970EDE7002C00DA06240199013A69
:100AA0007D1A551B2022079911430291672940D1D5
:100AB000002C00D1CEE1002B79D0A64A934200D978
:100AC000D4E0A549009819F055FC431E9841002335
:100AD0000026303003932033059004939F4B039AF4
:100AE0000099D05819F03CFC002808D0049B039AC8
:100AF000F6189B4B0098D1581AF0B2F80090049B5E
:100B00005B100493039B04330393182BE6D1153336
:100B10000393009A8F4B93425DD38F49009819F04D
:100B200029FC002851D0002E7CD0FE239B05009389
:100B300051E0002BC1D1029B662B38D1631CAB4224
:100B400000DBAC1E029B651C049300231E00039374
:100B50000593E343DB171C40049B652B00D0EEE0BC
:100B6000651C00230693069B9D424CDD00981AF0FD
:100B700083FB7B1C0893030030333B70059A069B74
:100B8000934205D1002C03D0BB1C08932E237B700D
:100B90001AF092FB011C00981AF094F971491AF0AE
:100BA0005FF8069B009001330693089FDBE7631D07
:100BB000AB4200DBAC1F029B652B00D1AFE00025F0
:100BC0000493039505952E00C3E7009865491AF034
:100BD00047F801360090029B662B03D0672B39D172
:100BE000042E37DC059B3B70029B672B01D1731EE3
:100BF000E418631CAB4200DBAC1E002C15D166234D
:100C0000013703940493029B662B00D0B0E0012EC1
:100C100000DDDDE05449009819F0ACFB002800D05D
:100C2000ACE0D5E02B2303937FE72E232500302271
:100C30007B70BB1C013E1F00002E76D0002D05D11D
:100C4000039501235B42059367334DE01A70013D24
:100C50000133EFE76B1FA3426CDC029A672A66D070
:100C60001300AC1F00250493059572E700230026AE
:100C70000393203304933A4B039A0099D05819F008
:100C800065FB002808D0049B039AF618334B0098A4
:100C9000D15819F0E5FF0090049B5B100493039B6F
:100CA00004330393182BE6D12E49009819F062FB08
:100CB000002805D000982D4919F0D2FF0136009088
:100CC000029B662B12D1AE4214DAA3190133AB4258
:100CD00004DBAC1B023C631C00D10024002335194B
:100CE0000393013505966633049332E7029B652B27
:100CF00000D0B1E06B1FA34200DCAC1F2B2300250A
:100D0000039305953A33EFE7231DAB4200DB6C1FDD
:100D1000029BA64200DBA3E0731CE41ADEE7029B01
:100D2000002504932B2303934CE7039689E71C00CB
:100D3000029B97E70025029B059504930CE7049B13
:100D4000672B00D00DE7251E00D00AE701252C00F7
:100D500007E7C046FFFF7F3FF8FF7F3FD4950200C3
:100D6000EC950200000020410000A040CDCCCC3D1D
:100D70003E49009819F0FEFA002824D030217B1E4D
:100D80001A782E2A4FD010003038092842D9013362
:100D90000193019B1B78302B15D1019A52782E2A92
:100DA00045D10499662942D001994B70039B0A7082
:100DB0002D2B3AD1013E002E3BD03B00019A9A42A6
:100DC0003AD331231370029B672B01D1002C39D108
:100DD000039B002B19D02022079B0A2113401A00E5
:100DE000452313433B70039B30007B7019F068F977
:100DF0000A2119F04BFA3031B97030000A2119F08C
:100E000045FA3C1D3031F970270000233B70099BE7
:100E1000F81A04E6392A02D001321A70B8E7019AAA
:100E200019709342B5D0013BAAE70136C5E70137F7
:100E3000C3E72B230393C0E75A1E117819701300E0
:100E4000BCE71F007B1E1A78302AFAD02E2ABFD1A9
:100E50001F00BDE701242EE6029B672B00D153E75C
:100E600004932B2300250393FEE6C0460000A04018
:100E7000044B054A98331B6804481A60044A9A8058
:100E80007047C0467C2E002078000400F8EA02007B
:100E900004040000084A10B5130098331B689979C0
:100EA000002908D0916C0029F9D0002199711B69A3
:100EB000587906F087F810BD7C2E002013B5084C39
:100EC00098342368188821F06EFA236800905888B7
:100ED00021F069FA69460190022004F059FF16BD1D
:100EE0007C2E002010B50D4C002803D008680FF0B0
:100EF0009DFC04000A49200006F0F2FF6079002101
:100F000006F060F8200006F0D5FF0022054B0648E9
:100F100098331B681A619A7110BDC046C4DF020085
:100F2000D4AA02007C2E0020F8EA02001FB50C4B68
:100F300002AC0093019402230DF086FA029A002A73
:100F400003D0084B98331B685A806268002A03D08C
:100F5000044B98331B681A80034804B010BDC04688
:100F6000449702007C2E0020F8EA0200F0B5254BE1
:100F700089B004AC0093019404230DF065FA224F6C
:100F8000224A3B0098331B6804989A80204B034008
:100F9000062B06D0830730D102681E4B92699A4215
:100FA0002BD1012303940293002598373B681869DD
:100FB00006F080FF3B6860681D610FF037FC164942
:100FC000060006F08DFF3B68144A9D711268029975
:100FD0009A60227B9981DA71DD81039A012900D11F
:100FE00012685A6101221E619A71237A002B01D086
:100FF000FFF750FF0A4809B0F0BD03AA02A908F0A4
:1010000045FCD1E7049702007C2E00200404000078
:10101000070080FF1D230000D4AA0200782E0020C4
:10102000F8EA0200F0B5274B89B004AD01950093B2
:1010300004230DF009FA6B68A868049E03930FF06F
:10104000F5FB214F040098373B68186906F032FF22
:1010500000223B681D491A61200006F041FF6079BB
:1010600080212D7B05F0AEFF002E1CD1607906F0AB
:1010700029F8039B002B13DB0022134B14499833F0
:101080001B6803989A710968DA714118DA605A612D
:10109000023299601C619A71002D01D0FFF7FAFEAF
:1010A0000C4809B0F0BD31000B4818F07FFF05F087
:1010B00065FF0028DDD0607906F004F807480AF0E3
:1010C000FFF9C046249702007C2E0020D4AA02001B
:1010D000782E0020F8EA020040420F00C81A0300F0
:1010E00010B5182020F065FC064B98331860064BAD
:1010F0000360064B838000238371036143610448CE
:1011000010BDC0467C2E00207800040004040000BE
:10111000F8EA0200F0B56D4C87B0260098363368C7
:10112000002B40D09A79002A3DD0694D99682A68F1
:10113000914238D89A79022A0BD11B69002158793B
:1011400005F040FF2B6832680A33936001239371E6
:1011500029E09A79012A26D19A89D989914204D322
:10116000DD79002D19D00021D9815869012A02D0DA
:10117000DA8992001058574A904216D11B69002113
:101180005879983405F01EFF24685348218818F0D8
:1011900097FF0123A060A37105E09D71186906F017
:1011A00089FE33681D6107B0F0BD05A900F0E8FDB8
:1011B0009834236801901B69802158790293059E19
:1011C00005F000FF019B24681F781F2321884248F7
:1011D0001F4018F075FF618818F072FF7D1EEDB298
:1011E0000390012E5AD9019B5B78232B4DD0622BA3
:1011F00050D1002D4BD0023FFDB26A1E53425A41DE
:101200005242022E4ED0012102230198C05C3A289E
:1012100003D00F27384020710133207984469E4245
:101220000ED90198C05C3A280AD1581C864207D9C9
:10123000019F0233385C0F2738409E4235D86071D9
:10124000092D3DD86346043B9A1852B26F00234BD8
:10125000002900D1224BD85B002A2EDB104105F07B
:101260008DFE1A4B039998331A68537959430B0032
:1012700017490A3B09680A2B00DA0A235B189360B6
:10128000D3890133D381022361E70022B9E72A0021
:101290000625B6E7002101230A00B6E70021012355
:1012A0000A00BAE733000121B7E70A267043019E1E
:1012B0006071F65C3E408019C1E752429040CEE733
:1012C000029B0021587905F07DFECAE77C2E0020A4
:1012D000782E0020F8EA020060EA0000761503008C
:1012E00068150300032230B502400121002A04D111
:1012F000084C05680B00A54209D00B00034006D13D
:10130000002A04D1036804481B1A584243411800BC
:1013100030BDC04618AE0200B4ED020010B50400A6
:10132000FFF7E0FF012200280AD103230200234037
:10133000022B05D103480440063C2200541EA24162
:10134000100010BD070080FF044B88600B60044B49
:1013500008004B600023CB607047C04600E80200E5
:10136000D71C020010B508F007F9084B426808487E
:10137000D31859424B41BD215B428B4305495B1851
:1013800005490DF017FC0CF083FFC04615FDFFFF6B
:1013900068C00200EB020000D61A0300F7B5040093
:1013A0000E00019301208B180A0000210093009B7E
:1013B000934212D82725002900D0053D224F2A004C
:1013C0003900200023F032FE009B9E4214D32A00F5
:1013D0003900200023F02AFEF7BD1378272B08D010
:1013E000223B5D426B41DBB20132002BDFD027256F
:1013F000E4E700230100F7E73278AA4205D12A008A
:101400001249200023F012FE1AE011495C2A14D080
:101410001F2A09D97F2A15D0019B002B02D053B275
:10142000002B07DB3900ECE70A490A2A05D00A49F4
:101430000D2A02D0092A05D10849200023F035FDE4
:101440000136C1E70649DCE7101F03000F1F030048
:10145000131F0300161F0300191F03001C1F0300A6
:101460001F1F0300194B70B506000C0098420FD1E6
:101470004968A0680DF0B6FD051E09D0200021F0D6
:10148000CAF80023ED00236006331D43280070BD19
:10149000102020F08EFA6168050081600660A06867
:1014A0000DF082FD63686860591C2368994208D179
:1014B000A368EB600023EA68A9685354A360236023
:1014C000E4E7A06820F093FAE860F3E704B50200CF
:1014D00070B504000D00002A05D00DF0B5FDC30065
:1014E0000620184370BD0DF07DFD0028F7D12A00BD
:1014F0002100024820F0C7FAF4E7C04604B5020014
:1015000010B50A000100024820F0BDFA10BDC04627
:10151000AC970200094B10B50340062B01D1C0085F
:1015200010BD830708D1064B02689A4204D1816836
:10153000C0680DF089FDF3E7FFF714FF070080FF97
:1015400004B50200064B10B50340062B03D1C008BA
:1015500023F0DDFA10BD8368C0680B60FAE7C0466F
:10156000070080FFF0B50F00002589B011000600CC
:101570001C003800009503232A000CF035FF0E20D4
:10158000AF420FD0012F0FD102AA102104A804F0FE
:1015900007FA216802A82A0008F006F804A930001A
:1015A000FFF760FF09B0F0BD2068830722D1164B1A
:1015B00002689A421ED104A9FFF7C4FF134B05002D
:1015C00020680340062B13D1C00823F091FA0400D1
:1015D000002C04D1049928000DF0E6FC0400102032
:1015E000049F20F0E6F906608760C5604460D9E793
:1015F0004468EDE704A9012208F060FA0022059989
:101600000498FFF765FFCDE7AC970200070080FF65
:10161000F0B58DB00400039107F0AEFF04A90600F9
:101620002000FFF78FFF039B01902F489A0705D1F9
:101630001B6883420AD02D4A934207D0C368002218
:101640000293012103AB029CA0470390002406AA49
:1016500005A9039808F01AF92500059BA3420ED8A6
:101660002900002508A820F0C5FF0A9C059BAB4275
:1016700021D808A93000FFF7F5FE0DB0F0BD069B9C
:10168000A700D85907F078FFB04202D018480AF0F6
:10169000DBF8002C01D0049BED18069BD859154BA4
:1016A0000340062B05D1C00823F027FA2D1801347A
:1016B000D3E78068FAE7002D06D02000049A01994C
:1016C00027F0A8FC049BE418069AAB00985807A9D9
:1016D000FFF738FF079A0100200027F09BFC079BCB
:1016E0000135E418C2E7C046949B0200B0A4020092
:1016F0004C1F0300070080FFF0B58BB00490086812
:101700000D000692079307F037FF0400686807F0A2
:1017100033FF0600A04202D06868FFF723FE08A945
:101720002868FFF70FFF040009A96868FFF70AFFA0
:10173000089A0590A3180393049B2700022B19D93C
:10174000AB681D498B4206D0012130000091210079
:101750000BF0DAF90700049B032B0BD0EB68164A59
:10176000934207D00122210000923000089A0BF02A
:10177000CBF90390039B059AD91B069B3800009375
:10178000099B20F061F9002806D1079B0138002B46
:101790000CD00A4809F094FE094B9E4208D1010082
:1017A000200021F015F94400012020430BB0F0BDCA
:1017B000041B6400F8E7C046F8EA0200381F030083
:1017C00004B50200F0B5070087B008680D0007F007
:1017D000D3FE04A906002868FFF7B4FE05A904009B
:1017E0006868FFF7AFFE03902000022F07D901239E
:1017F0000093AB68049A210030000BF085F9059A3C
:10180000041B049BA418064D9C4205D8039927F09D
:10181000F2FB002800D1034D280007B0F0BDC04600
:1018200008AE020010AE020073B50D000600694656
:101830002868FFF787FE01A904006868FFF782FEA9
:101840000100022E02D908480AF02CF8019A0098EB
:10185000064D824206D8801A201827F0CCFB0028BB
:1018600000D1034D280076BD261F030008AE0200FC
:1018700010AE0200F0B58FB0079010680C00160093
:1018800007F07AFE0690012C31D0706807F074FEE4
:10189000069B984202D07068FFF764FD0DA970683E
:1018A000FFF750FE0D9B089009930DA93068FFF7D4
:1018B00049FE0D9B0B900493079B012B1CD1049BAD
:1018C0005D1E01235B420A9300242700049B0394BE
:1018D0000593059B002B13D1039B002B23D1214B98
:1018E000069A0E209A4200D01F480FB0F0BD072381
:1018F00009931E4B0893D8E7012300250A93E3E7D9
:101900000B9B09995A1901230898009320F09CF821
:10191000002816D1039B002B19D1079B002B09D15E
:101920002F00049B5C1E049B0134E21B934212D1E6
:101930003068DAE7079B2C00012B0AD001232F0027
:1019400003930A9BED18059B013B0593C1E72C000F
:10195000F7E7039FE7E70B9B0698D91920F093F868
:10196000C3E7C04604B502009C970200A51F030010
:10197000F0B589B0049008680D0007F0FDFD040083
:10198000686807F0F9FD0700A04202D06868FFF719
:10199000E9FC06A92868FFF7D5FD060007A96868D5
:1019A000FFF7D0FD069A0590B3180393049B34000B
:1019B000022B19D9AB681E498B4206D00121380091
:1019C000009131000BF0A0F80400049B032B0BD016
:1019D000EB68174A934207D0012231000092380089
:1019E000069A0BF091F803900025079BAB4212D1A9
:1019F000039B2000191B20F0FAFF01304500012055
:101A0000284309B0F0BD0599200027F0F4FA00281A
:101A100008D101353400079A039BA6189E42F2D9DB
:101A20006D00ECE7200020F0CAFF0600F2E7C04698
:101A3000F8EA020010B50100014820F016F910BDC7
:101A40000F2A020010B50100014820F00EF910BD68
:101A5000212A0200F7B50600080001A9FFF772FD70
:101A6000019B0500002B01D11348FEBD134B040060
:101A70009E4207D10027019A631B9A4211D8002F7A
:101A800007D1F1E70E4B9E42F4D0019A631B9A42B4
:101A900001D80C48E9E72078B04701340028F4D198
:101AA000E2E7207806F04AFA002803D02078B04711
:101AB000071ED9D00134DEE708AE0200A57F000082
:101AC000BD7F000010AE020010B501000148FFF715
:101AD000C1FF10BD257F000010B501000148FFF7D0
:101AE000B9FF10BD3D7F000010B501000148FFF7B0
:101AF000B1FF10BD557F000010B501000148FFF790
:101B0000A9FF10BDA57F000010B501000148FFF737
:101B1000A1FF10BDBD7F0000F0B585B006000C0030
:101B2000170007F029FD694605003000FFF70AFDA0
:101B30000600042F23D10098A30715D1114B22686A
:101B40009A4211D101AA210003F086FC002802D19B
:101B50000D4809F0A7FE0199029A2800521A71183F
:101B60001FF091FF05B0F0BD002301002200280006
:101B700007F0C2FE335C01205B001843F2E700204F
:101B8000F0E7C046E0E10200341B030070B51D0021
:101B90008EB0002900D174E018683B4C030023404C
:101BA000062B05D0830726D1384B02689A4222D1F2
:101BB0000239012962D80AA9FFF7C4FC0600286887
:101BC0000440062C15D1C00822F092FF0400002C1E
:101BD00004D10A9930000DF0E7F9040010200A9DA5
:101BE0001FF0E7FE2A4B85600360C66044600EB0BC
:101BF00070BD4468EBE7012940D80122104210D0A3
:101C0000441021000AA820F0F5FC0C9B00212200C2
:101C10001800019327F01AFA0AA91D48FFF722FCC1
:101C2000E5E703A921F025FA002805D0049A0399D5
:101C300017481FF028FFDAE7286807F09FFE1021F9
:101C4000002800D0411006A820F0C3FC0AA928688B
:101C500009F006F80400200009F064F8002801D11A
:101C600006A9DAE707F070FDFF2802D9094809F054
:101C700027FCC1B206A820F00CFDECE7064809F0ED
:101C8000E3FD0648B3E7C046070080FF04B5020045
:101C9000AC970200011B03001A1B03009C97020073
:101CA00073B50400080001A91600FFF74BFC0500FE
:101CB000042E06D10300019A0749200023F0B6F94B
:101CC00073BD0649200023F0F0F80123019A290092
:101CD0002000FFF763FBF3E7911F0300D57A0300B1
:101CE0000A001B4B73B51A4005000C000340062B7D
:101CF0000CD1062A04D1441A60426041C0B212E0FD
:101D0000C00822F0F5FE0600606805E04668062A75
:101D1000FAD1C80822F0ECFE002E05D0002803D02E
:101D2000B04201D0002076BD69462800FFF70AFCCA
:101D300001A905002000FFF705FC009A019B0100A6
:101D40009A42EFD1280027F056F944426041D5E786
:101D5000070080FF084B07B50340062B08D0830718
:101D600004D10268054B92699A4201D0FFF7FAFA52
:101D700001A9FFF7E7FB0EBD070080FF1D23000050
:101D80000A4B13B503400C00062B08D0830704D17F
:101D90000268074B92699A4201D0FFF7E3FA01A962
:101DA000FFF7D0FB019B236016BDC046070080FFF4
:101DB0001D230000F0B59BB00B90059108921021F7
:101DC0000EAA12A8099303F0EBFD059B089A934213
:101DD00008D30B9A12AB13CB13C21B6813600B987A
:101DE0001BB0F0BD059B19785D1C7D290ED1089BA9
:101DF000AB4208D9059B59787D2904D112A820F05F
:101E000048FC059507E0BC4809F05AFB7B2906D041
:101E100012A820F03EFC059B01330593D5E7089BF3
:101E2000AB4216D9059B59787B29E7D02B007D2939
:101E300003D0212901D03A290DD100252E001A788E
:101E4000212A11D0002206921AE0089A01339A4200
:101E500001D1AA48D8E71A787D2A03D0212A01D0D7
:101E60003A2AF2D11E00EAE708995A1C91421CD97D
:101E70005A780692723A012A17D802339942E8D961
:101E800000211A7805913A2A1FD15A1C5B780592D5
:101E90007D2B1DD1089B059A9342DAD90027059B1B
:101EA0001B787D2B17D09648AEE79648ACE719789B
:101EB0007B2905D10132013308998B42F7D3C8E75A
:101EC0007D29F8D1013A002AF5D1059F0593E6E76F
:101ED000059B0122F0E7002D48D0002328781693B7
:101EE00006F038F800283DD0099B1B680793002BAB
:101EF00001DD854888E716AA310028001FF08CFD17
:101F0000209A169B013A04009A4203D87F498048E0
:101F100021F08EFE219A01339B009D580122099BDE
:101F200052421A60B44231D27A4809F0BBFC013403
:101F3000B44204D223782E2B01D05B2BF7D1611B46
:101F400001222800FFF7C4FA0022050001002298B0
:101F50000FF0C2FD002807D129006F4822F06FFD65
:101F60000CF096F92C00E3E74568DBE7099B1B685A
:101F7000002B01DA694847E7209A013A9342C5D21B
:101F8000013321999A005558099A1360002F00D007
:101F9000A6E1069B3C00002B04D0069C733C631E0C
:101FA0009C41E4B210AA102116A803F0F9FC290004
:101FB000220010A807F0F8FA16A95948FFF752FABC
:101FC00001235B4205000D931093002F00D18FE099
:101FD0000DF0A0FA229B059A0293219B39000193F0
:101FE000209B16A80093099BFFF7E4FE16A820F09B
:101FF0003EFB0026179B0400C3180A930378069340
:10200000B34208D0474F1900380027F05BF8B042C0
:1020100000D16EE1013423782B2B4ED000272D2BDD
:1020200002D0202B01D1043701342378232B02D195
:10203000133B1F4301342378302B07D1069B002B21
:1020400001D13D330693002E00D130360DAA0A99F6
:1020500020001FF0E1FC037807902C2B04D10C3BEF
:102060001F43030001330793079B1B782E2B06D1D8
:10207000079810AA01300A991FF0CEFC0790079B21
:102080001C78002C1BD02100274827F01BF80028C3
:1020900003D0079B5B78002B11D02448B4E63100B5
:1020A000380027F00FF8002804D033000234069ED1
:1020B0000693B0E706900600ADE70227B4E716A83E
:1020C00020F0A9FA069B002B08D12800FFF726F97B
:1020D0003C230693002801D002330693002E00D142
:1020E000203606231F4229D0732C23D110488BE6BB
:1020F0003C003E00E9E7C0465F1C0300A01C030053
:10210000B81C0300871C0300DC1C0300261D030011
:102110005CBD02003F1D030098BD02005C1D030072
:1021200004B50200A61D0300AB1D0300BB1D030088
:10213000D41D0300632C01D1714865E6069B3D2B3D
:102140001FD05E2B1FD03C2B01D13B3B1F432800EF
:10215000FFF7C8F800282DD0632C50D026D8472C84
:1021600013D8452C26D2002C40D0252C22D0280074
:1021700020F068FF22000300624963480CF01AFD5A
:10218000EEE64023E2E78023E0E7582C53D0622CB0
:10219000EDD1002303930D9B02220293612301964C
:1021A000009729000EA80DF06DFF34E6672C17D8B4
:1021B000652C1BD32800FFF7B1F800286CD0002C49
:1021C00056D06E2C54D0472C3FD8452C41D2252CCC
:1021D00050D0280020F036FF220003004B49CCE706
:1021E0006F2C1AD0782C26D06E2CC0D100230393EC
:1021F0000D9B01960293009761230A22D1E72800E4
:1022000007F0A2FA0D9B16A90870012201933B006A
:1022100000960EA80DF0DAFEFDE5FB0602D5802340
:102220009B001F43002303930D9B0196029300978D
:1022300061230822B5E70022230003920D9A173B81
:102240000292019600971022ABE72300653B022B18
:10225000BFD8280007F0DCFA109B220002930D9BE8
:10226000011C01933B0000960EA822F09AFED2E5D5
:102270006724EEE72800802407F0CAFA244918F002
:10228000EFFC109B640002930D9B3C430193011CE7
:10229000009623006622E7E7069B3D2B01D11D48EF
:1022A000B2E5002C01D0732C13D116A92800FFF73A
:1022B00067FD109B0100169A002B00DA1092109B0C
:1022C0009A4200D916930D9B00960193169A3B00F3
:1022D0009FE7280020F0B6FE220003000E494CE7DD
:1022E000069B002B00D058E601235B420D93109310
:1022F0006EE66678002E00D0D1E606968BE6C046E4
:10230000001E0300331E0300E0C00200641E030031
:102310000000C842981E0300CD1E0300F0B5A1B016
:1023200005000C000D920A2800D0E4E10DAB0F93DC
:102330000123073D1093059215403CD11368BF4A15
:10234000934206D10FAA10A9059820F0C0FA05956E
:1023500002E0BB4A9342FAD1109B11A907930F9B4D
:1023600020000893FFF7EEF8002309900A93A307D3
:1023700005D1B44A23689B1A5A425A410A9214AAB8
:10238000102118A803F00CFB119A00279446099B12
:10239000099C63440493049BA3420FD8079BAA485B
:1023A000BB4229D10A9BA948002B00D0A54818A9F7
:1023B000FFF758F8BAE100230593CDE721782529E6
:1023C00004D018A820F065F90134E4E7049B661CEA
:1023D000B34202D89E4809F073F86178252904D1E8
:1023E00018A820F056F93400EEE70025282915D169
:1023F000059BAB4202D1974809F026FAA01C0600C3
:102400003378292B23D1311A0122FFF761F801001B
:1024100005980DF053FD0127050001360023340017
:1024200040220026302104200B9320330693049B86
:10243000A34213D800231293049BA34231D92378DB
:102440002A2B70D1079BBB4221D88348D4E7049B39
:10245000B34201D88148BEE70136D1E723782D2B5E
:1024600003D12C3B1E430134E1E72B2B01D1293B47
:10247000F8E7202B01D10643F5E7232B04D0302BBE
:10248000D8D116430691EEE710230B93EBE77B1CA4
:102490000C93089BBF00F85807F056F90C9F129058
:1024A000013401235B421393049BA34292D9237806
:1024B0002E2B17D1049B601C83428BD963782A2B67
:1024C00038D1079BBB42C0D97B1C0C93089BBF0033
:1024D000F85807F039F90C9F13900234049BA3427B
:1024E00000D877E7002D06D1079BBB42ADD9089AEB
:1024F000BB009D5801372278672A45D8652A00D34A
:10250000B8E0582A5DD01DD81300453B022B00D8F7
:10251000B0E0099B5249E41A0094130051480CF0B2
:1025200049FB0BF0B5FE200012AA04991FF074FAC3
:102530000400B6E7002313AA049913931FF06CFA62
:102540000400CBE7632A49D0642AE2D103222B009E
:102550001340022B0AD1444B2B40062B06D0FF23FD
:10256000DB05E818904311F0B9FD0500139B0A2222
:102570000393129B00960293069B0193612329000B
:1025800014A80DF07FFD1FE7732A16D8722A00D316
:1025900080E0692ADAD06F2ABBD10B9B002B02D0D6
:1025A00084239B001E43139B00960393129B0822D7
:1025B0000293069B01936123E1E7752AC6D0782A2E
:1025C000A7D11300139A173B0392129A0292069A0C
:1025D00001920B9A164300961022D0E7224B2B4013
:1025E000062B05D0AB0716D1184B2A689A4212D198
:1025F0001CA92800FFF7C4FB1C9A0100012A01D086
:102600001A48F9E6129B019320230093330014A883
:102610000DF0DCFCD8E62800FEF764FE00280BD0A5
:10262000280007F091F8129B1CA908700193202341
:10263000012200933300EAE70D48DDE6B0A4020072
:1026400054DD0200AC9702002A1C030004B502000E
:10265000651B0300771B0300A41B03008E1B0300F4
:10266000F51B0300E0C00200070080FFCB1B030046
:10267000E41B0300280007F0CBF8139B2278029399
:10268000129B011C0193069B14A80093330022F0B7
:1026900088FC99E616AA10211CA803F081F923787A
:1026A0001A00723A51424A41D2B2722B09D00A9BA7
:1026B000002B06D0AB0704D1594B2968994200D1B1
:1026C0000422290016A806F06FFF139A1D9B002A0A
:1026D00000DA1393139A9A4200D91A00129B1E999A
:1026E0000193202314A8009333000DF06FFC1CA865
:1026F0001FF091FF68E6080006F03EFF16A90700EC
:102700002000FEF71FFF0590072D22D118A90D9874
:1027100007F058F803000020834207D0189981423F
:1027200006DC404B40489F4200D10E2021B0F0BD56
:10273000169B1CA859431FF05DFF1E9B01210493AB
:1027400000930598189B169A1FF078FE1CA9380074
:102750002EE60D9806F010FFB8420FD11CA90D9877
:10276000FEF7F0FE1C9E04901D2D17D8192D4ED299
:10277000052D21D0122D1FD00020D7E7284B0D9812
:102780009F4209D101221CA920F073FC0028CDD062
:102790001C9B1D9E0493E7E7FEF7E4FD1F2DEBD184
:1027A0000123049A00931699330005981FF04CF901
:1027B00000282AD01D48B9E7169B002B07D10D9899
:1027C00006F0DAFEB84202D10D9C2000AEE7002EE2
:1027D000FBD0169B1CA8F1181FF00CFF1E9B169A2D
:1027E00005991800069326F015FC169A1E9B944630
:1027F0000593634418003200049926F00BFC1CA9D1
:102800003800FEF72FFE0400DFE709488EE7009648
:10281000049B169A059928001FF046FEC8E7C0469B
:10282000AC97020004B502009C97020010AE0200B3
:1028300008AE0200F0B5050087B008680C0006F08D
:102840009BFE0090012D28D96668022D26D0A06835
:1028500006F07AFF0500002108001FF028FB04A9FC
:1028600001902068FEF76EFE049B0400C7183E4BE3
:102870009E4241D1BC422AD2207805F053FB002869
:102880000FD1002D0FD121003A1B00981FF0FBF84B
:102890000100019800F054FD19E0334E01256D420E
:1028A000D9E70134E6E72600307805F03BFB002845
:1028B00002D10136B742F7D82100321B00981FF031
:1028C000E2F80100019800F03BFDB74209D80198F9
:1028D00007B0F0BD0136B74203D1002DF7DD013D51
:1028E00006E0307805F01EFB0028F3D1002DF6DC61
:1028F000BE42ECD23400C4E7300006F03DFE009B3F
:10290000984202D03000FEF72DFD05A93000FFF7F8
:1029100037FA059B0390002B13D1144808F0D0FD23
:102920003E002100321B00981FF0ADF80100019815
:1029300000F006FDBE42CAD2059BF418002D00DD52
:10294000013D2600059B0293002DE9D0029BF31860
:102950009F42E5D3029A0399300026F04CFB0028F1
:10296000DFD00136F0E7C046F8EA0200FF1E0300A0
:10297000F0B507008BB00D00022807D829003800F9
:10298000FFF758FF050028000BB0F0BD086806F0FF
:10299000F3FD08A9049028686E68FEF7D3FD019046
:1029A000A86806F0D1FE041EE8DB431C18000021D5
:1029B00005931FF07CFA2F4B05009E4202D12E4852
:1029C00008F070FF09A93000FFF7DAF9099B0690BB
:1029D000002B02D1294808F073FD089A019B944608
:1029E00063440293A3000393099F029BDE1B002C08
:1029F0000BD0019BB34208D83A000699300026F06C
:102A0000FAFA002821D0013EF1E7EB68A6009F19F1
:102A1000019A029B01999A1A04981FF034F83860C1
:102A2000002CB0D0059B1C1BEB68A70099193A003D
:102A3000180026F0F8FA6B6800211A1BEB68920068
:102A4000D81926F003FBAC609DE7039AEB68944627
:102A500063440793029BF1199A1BD21B04981FF041
:102A600012F8079B013C1860039B0296043B0393FA
:102A7000BAE7C046F8EA0200961F0300FF1E0300F3
:102A800070B50C008AB0050004A920681600FEF796
:102A900059FD00230593049B0100C218029605AB63
:102AA00006A801940095FFF785F906A90248FEF7EC
:102AB000D9FC0AB070BDC04604B50200004870479A
:102AC00016FCFFFF0048704716FCFFFF82B007B5F9
:102AD00091B204920593052909D01B2902D104A8BB
:102AE000FDF70AFD002003B008BC02B0184704AB94
:102AF0005B88032BF6D106A90822684626F08AFADD
:102B00000349049A059B086814F064F9EAE7C04693
:102B1000B82A00200022044B5A60044A08321A6086
:102B2000034A13607047C046B0010020909902002C
:102B3000A02B0020F0B5802787B02B4D02907F425C
:102B40002C78002C1CD063B2002B12DA6E787C40FB
:102B5000E4B2002E14D0013CE4B2FF2C02D10135C6
:102B60000135EDE704AB981D01210670FDF784FBEC
:102B7000F1E704ABD81D01210470FDF77DFBEFE701
:102B8000052702981EF0F7FD0124BC4227DA002534
:102B9000164E22002900300002F06AFA6B460190BE
:102BA0001B79002B15D0631E1A00290030000393F7
:102BB00002F05EFA031E0CD122002900300002F060
:102BC00023FAFF22019B290013403000621E02F00D
:102BD0001BFA0135052DDBD10134E4B2D5E7013F05
:102BE000002FCED107B0F0BDAC1F030014000020B1
:102BF00010B5C820FFF79EFF004810BDF8EA02009C
:102C0000044B054A05481A60054A5A6000221A8199
:102C10007047C046BC01002020030700F8EA02000C
:102C200074696275F7B51600314A0B00883217686F
:102C3000002F02D12F4808F043FC02212E4C2F4DCB
:102C4000E167A324E4002C592D4AE4B206343C1970
:102C50002C4F3D68A54204D12B4B11600193019884
:102C6000FEBD2578002832D1601C002B04D129003C
:102C7000FEF746FC01900BE05A68AA4200D92A00F0
:102C80000100186826F0CFF901226B001A43019267
:102C9000002E0ED0621953785B423360D3781179DD
:102CA0001B0209040B43917852790B43120613431C
:102CB00073603E68A91D6118721A200026F0B3F9EE
:102CC0000223751B0E4A063D3D601360C7E7022DC7
:102CD00004D8002303600E330193D9E721000422B6
:102CE00026F098F9E91E201D0022FEF7F1FBC1E74E
:102CF0007C2E0020CC20030004E100E00010004006
:102D000000E100E0C8010020F8EA02007FB50021E0
:102D100001AA0800FFF786FF0A4B98420FD0012155
:102D2000019B03905A00029B0A438B400492064A7F
:102D3000032013400B4303A9059303F029F807B0C0
:102D400000BDC046F8EA0200FEFFFF7F002213B577
:102D500001AC11002000FFF765FF094B98420ED02F
:102D60002378022B08D96378012B05D1A378002B97
:102D700002D1E378012B02D0024808F0A1FB16BD76
:102D8000F8EA0200AC20030002220B4B10B5DA6710
:102D900000220121094B5A61094A11615A69002A2E
:102DA000FCD0084C88342068002803D01EF030FE88
:102DB0000023236010BDC04604E100E0FC10004089
:102DC000001000407C2E002010B5FFF7DDFF014809
:102DD00010BDC046F8EA0200F8B5FFF7D5FF364C43
:102DE0002678657806360135754328001EF0E1FD2A
:102DF000324A861916600022314B45198833186013
:102E0000304B01211D60304B5A608022D205116089
:102E10005A68002AFCD003212C4B61562C4A00250D
:102E20009950A178043A9950617A083299506168B2
:102E3000284A08269950217A274A284F995001217B
:102E4000274A9D5004329950264A9E508122247868
:102E500092042243A324E4001A510224224A9C50E3
:102E6000224A9F50224F043A9F501827214A9F50D0
:102E7000214AC0279850C12292009E501F4ABF008D
:102E8000D0591F4E0640C02000023043D051C02010
:102E9000400014501460102280301C5822431A50F5
:102EA000184A5560596051680029FCD00021116111
:102EB00001229A60F8BDC046BC010020C801002074
:102EC0007C2E0020B8010020FC00004000100040D3
:102ED0000C0500001C05000024050000FFFF000099
:102EE0002C05000014050000340500003C0500001E
:102EF00021100100540500000405000000E100E07D
:102F0000FF00FFFFFC10004010B5FFF765FF014810
:102F100010BDC046F8EA0200F0B505008DB01600FD
:102F2000002802D0694808F08FFC694B09AA1900F3
:102F300091C991C21A781F7A06925A7805929A78A6
:102F4000039203229A5604925A685B7A0192029382
:102F50007368AB424CD9EB000793B368EA009B1847
:102F60001A68002A1BD0042A19D0586806F018FCE9
:102F7000B368EA0004009858FEF7CCFA0200B338B0
:102F8000FF3806282ED816F0FDFF040C1319202652
:102F90002800631EFA2B00D995E0E3B206930135B1
:102FA000D6E7631EFD2B00D98DE0E3B20593F6E76B
:102FB000532C00D987E0E3B20393F0E7072C00D944
:102FC00081E0444B1B570493E9E7022C00D97AE0D7
:102FD000E3B20293E3E70194E1E7FF2C00D972E04A
:102FE000E7B2DCE73C493D480BF0E4FD0BF050F95B
:102FF0003B4B09AC88331B68002B12D1069B277210
:103000002370059B6370039BA370049BE370019B7B
:103010000A93029B63722E4B07CC07C331480DB055
:10302000F0BD069B2A4D2370059B637022882B8878
:103030009A420FD0FFF7A8FE039B2772A370049B50
:10304000E370019B0A93029B63720ECC0EC5FFF7DF
:10305000C3FEE3E70222244B2449DA670022244B13
:103060004A6101321A614A69002AFCD0039809AA10
:10307000907004981772D07001980A90029850725C
:10308000134870CA70C01B4A049898500398043AB9
:1030900098500298083298500198174A9850174A49
:1030A0009F5000224A6001325A604A68002AFCD0D0
:1030B00000220A61C02101329A60114B013249009D
:1030C0005A501A60AAE70F498DE7C0465620030000
:1030D000BC0100204E20030071200300E0C002006C
:1030E0007C2E0020F8EA020004E100E0FC10004021
:1030F000001000400C0500001C0500002405000025
:1031000000E100E087200300214BF7B55A68214D0C
:10311000002A03D000225A600132AA601A69002AEC
:1031200034D000221A61A323DB00E8581A4BC2B244
:10313000883319680C78A24201D2140008708023E9
:10314000DB00EB58012B1FD1144E154A3768A31D25
:1031500012680193FB189A4216D3621C380025F0BE
:1031600059FFA923DB00EB58621CBB5416F05EFE2E
:103170003368020A1C19E270020C2271019AA070D5
:103180009B18000E607133600123AB60F7BDC04631
:10319000FC100040001000407C2E0020C8010020E0
:1031A000B8010020F7B5314F00933B0088330192FE
:1031B0001A680E00002A02D12D4808F081F9022178
:1031C0002C4B2D4CD96700232C4D636101332B61AF
:1031D0006369002BFCD0A323DB00EB580099DBB222
:1031E0007118994203D9B3423DD39B1B0093009BB6
:1031F0008837F31813703B68010001331800320060
:1032000025F008FF009B002B06D038680136801996
:103210001A00019925F0FEFE0023636001332B6044
:103220006368002BFCD00123AB600023236123697A
:10323000002BFCD00023636101332B616369002BF9
:10324000FCD00023636001336B606368002BFCD00B
:103250000023C021022223610133AB60084B4900E7
:103260005A501A60F7BD1E000023BFE77C2E0020D5
:10327000CC20030004E100E0FC10004000100040FE
:1032800000E100E007B501A9FEF77AFD019B02000D
:1032900003210248FFF786FF01480EBD4A200300C4
:1032A000F8EA02001FB5012201A906F007FC00237D
:1032B00001981A000299FFF775FF014805B000BD9B
:1032C000F8EA0200002803D0012807D0002004E01B
:1032D0008B680448002B00D1034870478B685B0063
:1032E0001843FAE710AE020008AE0200044B8860F3
:1032F0000B60044B08004B600023CB607047C04656
:1033000000E80200391D020000238168F0B5CA0FF1
:10331000094C521852100E199A4201DC0748F0BDB0
:10332000C568F11A9C0089002C196D582768256022
:10333000C46801336750EFE7FFFFFF3FF8EA020080
:1033400070B583680D00416804008B4212D3C90038
:10335000C0681EF04CFB63680A495A00A3686260AB
:10336000D21A013352189B00E0609200C01800216D
:1033700025F06CFEA368E268591C9B00A16002481E
:103380009D5070BDFFFFFF3FF8EA0200F8B507004F
:1033900016004C10836812D5E41810D500240D4D8A
:1033A00038002900FFF7CCFFBB68591E9B00FA6864
:1033B000181F8C4207DBA4002800A650F8BD9C42D1
:1033C000EDD91C00EBE7D318083B1B6801391350FB
:1033D0000300ECE7F8EA020070B500250400856000
:1033E0001021C0681EF003FB04232900E060636025
:1033F000102225F02BFE014870BDC046F8EA0200FD
:1034000030B50C0085B0104B02AD0431009301388B
:10341000022301950BF018F823680C4C99680129D8
:103420000FD9D8680A4B029AC91889004118A242DC
:1034300000D100222D79074B002D00D1064B1EF044
:1034400089FC200005B030BDB89A0200F8EA0200FD
:10345000FFFFFF3F08AE020010AE020070B50C681F
:103460000B00A1680200002903D11949194820F076
:10347000DFFB2068012A27D05A68002306F03CFAB7
:10348000E168A26886008B19013A1D680436A260C3
:10349000121A92008919180025F0C5FD0021A368B1
:1034A000E0689A001150616804290BD95B009942C9
:1034B00008D949088900E0681EF099FA6368E0605D
:1034C0005B086360280070BD01225242D5E7C04608
:1034D000E12003005CBD020007B5009001910220CD
:1034E00069461EF09FFC694601900220FFF7B6FF77
:1034F00000480EBDF8EA020070B50E000D49050047
:10350000002421F0D2FCB368A34204D828000A4961
:1035100021F0CBFC70BD002C03D00849280021F01D
:10352000C4FCF168A30001225958280006F03CF8B9
:103530000134E8E760230300B0210300F520030015
:1035400070B5032604000D000E4029D1174B0A6800
:103550009A4225D183688A6899184368994210D99C
:1035600004318900C0681EF042FAAA68A368E060CE
:103570009B181A1D9B006260C0181022310025F0B4
:1035800065FDA368E9689800E3681818AB689A00BD
:1035900025F040FDAB68A268D318A360044870BD55
:1035A000290020001EF047FCF8E7C046949B02006B
:1035B000F8EA02000B4B70B5050003600C00080030
:1035C000042900D204206860AC6080001EF0F1F98C
:1035D0006A68E860121BA40092000019002125F01F
:1035E00035FD70BD949B02007FB50D0016001228BA
:1035F0003ED005D8052819D007283FD0002434E054
:103600000300193B042BF9D893070DD1284B1268FE
:103610009A4209D1B36800938A68F368C96801F0D7
:1036200097FF244C002820D1234C1EE003230024C4
:103630001340A34219D11C001D4A3368934214D190
:103640008B68B26898181EF00FFC0400AB68E9683C
:103650009A00C06825F0DEFCA868E36880001818AE
:10366000B368F1689A0025F0D5FC200004B070BD65
:1036700011002800FFF764FF2C00F6E703A91000F3
:1036800006F0A0F80024A042EFD0039BA34200DA8A
:103690000394AB68039858431EF0E6FBC36804002C
:1036A0000093AA68039B0421E8681EF0C7FEDCE7CC
:1036B000949B020010AE020008AE0200F0B5032792
:1036C00004008BB00E0010000F40002A33D1002FF1
:1036D0002AD1654B0A689A4226D104AAA06801F053
:1036E000BBFE002802D1614808F0DCF80599049B74
:1036F000A268E0685D1A521A9B0089004118920086
:10370000C01825F090FCA368AA00E818E3688000C0
:1037100018185242390025F099FCA3685D19A5607C
:10372000534D28000BB0F0BD07A90220079408965E
:10373000FFF794FEF4E7042A2CD1A068002F1FD1D4
:10374000494B0A689A421BD107AA01F085FE00285E
:1037500006D107AAE168A0681EF083FE0500E0E735
:10376000079B0898C01A1EF07FFB8368E1689A00E7
:10377000079B05009B00C918C06825F04BFCD0E7EB
:10378000002301003200206806F0B6F8E3688000EC
:10379000C558C6E7364D002F60D1334B0A689A42B0
:1037A0005CD103AA02A906F071F807AA3100A0684B
:1037B00001F052FE002896D0079B029A08999E18A5
:1037C0000191761AE068002E27DDA368F11863687E
:1037D000994206D989001EF00AF9A368E0609B1996
:1037E0006360029A079BA1689B18F21A5218089905
:1037F000E0689B00890041189200C01825F013FC76
:10380000029B03999A00079B9800E368181825F01B
:103810000AFCA3689E19A66083E79B000399C01861
:10382000920025F0F7FB0899A268E368521A890014
:10383000019359180798029B9200C018019B8000C1
:10384000181825F0F0FBA368B200F018E3688000B8
:1038500052421818390025F0F9FBDAE7020031006E
:1038600020001EF042FB5CE7E0E1020038BC0300F0
:10387000F8EA020010B5040008201EF09AF8024B86
:103880004460036010BDC046D09B020070B5137841
:1038900004000A3BD8B20F2809D90A001048114980
:1038A0000BF088F90025636A1860280070BD0025B8
:1038B00052781B021A43E36AAB420AD1238C0025DB
:1038C000042BF2D1084906480BF074F9636A1860BA
:1038D000EBE7206BA90009589142E6D00135EBE7F0
:1038E000F0BF02007B22030090220300F0B5040029
:1038F00085B00D00100003A9A26A1E001FF022FB74
:10390000002809D12A000B490B480BF053F9636AD0
:103910001860002005B0F0BD039805F041FF0300DA
:10392000B343F7D0030000962A00044902480BF085
:1039300041F9ECE737220300F0BF02004F220300F9
:10394000F7B51F0013780E000A3BD9B205002148D5
:103950000F2904D850781B02184321F0D3F81524FE
:103960000378009315231C491B1B0193A300CB1A5A
:10397000190055310978009A91421FD1190056312A
:10398000427809788A4219D1573381781B788B4263
:1039900014D1002B0FD1019B9A000F4BD05CB84281
:1039A00008D93B0032000D490D480BF003F96B6A52
:1039B00018600020FEBDC378002BECD0013C002C29
:1039C000D0D13200074906480BF0F4F86B6A186052
:1039D0002000EFE738BC0300F3220300A722030016
:1039E000F0BF0200C0220300F0B5137885B00500D7
:1039F0000E00462B47D101A910001FF0D3FA019BFE
:103A0000834240D003781A000A3A0F2A0AD80200EB
:103A10000F2331002800FFF793FF0124844020008A
:103A200005B0F0BDB32B2ED11FF0B7FA04001FF084
:103A3000AFFA02900378B62B25D10127A73B2200CD
:103A400031002800FFF77CFF3C0003A98440029866
:103A50001FF0A8FA039B02909842E0D09D2102A893
:103A60001FF0AFFA029A039B9A42D8D00F2331007D
:103A70002800FFF765FF3B00834002981C431FF0BE
:103A800087FA0290EEE73200034904480BF092F8FF
:103A90006B6A00241860C2E7D8220300F0BF02005E
:103AA000F0B50E0087B0040004A930001F00019299
:103AB00021F02DF8019B0500002B0ED1C04B9E423A
:103AC00005D1BF210902200020F062FA19E0BD4BA8
:103AD0009E4200D08BE0BC49F5E7019B012B00D052
:103AE0009DE00A23FF339E420DD101003A68200079
:103AF000FFF7CCFE0100200020F094FA002800D14E
:103B000018E207B0F0BD89239B009E4209D1010055
:103B10003A682000FFF7BAFE0100200020F0DAFA30
:103B2000ECE7AA4B9E420AD101000F233A6820001D
:103B3000FFF706FF8E21C000C9010143C3E70378E8
:103B4000622B3BD1049B032B07D0052B36D1C378C6
:103B50005F2B33D103796E2B30D101230E265B42CC
:103B600069789B480293B300F31AC3181A002B32EA
:103B700012788A4209D1AA7894461A002C32127817
:103B8000944502D12A331B780293013E002EEAD1DC
:103B9000029B01332BD03A6829002000FFF776FE04
:103BA000049B0200052B03D12E79773E73425E41C0
:103BB00033000299200020F051FA9FE78F239B00E9
:103BC0009E4201D183497EE7834B9E4201D18349C6
:103BD00079E7B1239B009E4212D129003A68200068
:103BE000FFF702FFFF231B02B421184215D0019BEF
:103BF0002A007B497B480AF0DDFF636A186080E792
:103C0000794B9E42F3D13A6829002000FFF7ECFE81
:103C1000FF231B021842EAD1BC2109028DE7019B58
:103C2000022B00D01FE17B68704A1B780A3B0F2BE8
:103C300048D8964212D13A6801000F232000FFF7BE
:103C40007FFE7A68060029000F232000FFF778FE28
:103C500031000200200020F0CEF952E70022644B30
:103C600002929E421AD18026F6013A682900072363
:103C70002000FFF765FE7A680190290007232000E5
:103C8000FFF75EFE019A03003100200020F0ACF93E
:103C900037E7029B013302930F2BA8D0029B03222C
:103CA0009E00544B2800991925F02BFA0028F0D1DA
:103CB000EB78002BEDD1504BF65C80233601DB0115
:103CC0001E43D2E796421AD1802607233A6829007C
:103CD0002000FFF735FEFF23019029007A682000BD
:103CE000FFF704FE0100019BB6011B02314319439B
:103CF000E9E6A026E9E7C026E7E7E026E5E73F4B4F
:103D00009E42F6D03E4B9E42F5D0D9339E42F4D02F
:103D1000643B9E4200D17FE03A4B9E4200D17DE061
:103D2000394B9E4200D17BE0384B9E427AD0013322
:103D30009E4279D0364B9E4200D058E70523354A43
:103D40009B009B5A290002933A6807232000FFF743
:103D5000F7FD7E6803903378452B67D130001FF064
:103D60005CF9002862D130001FF017F90378A62B08
:103D70005CD105A91FF016F9059906001FF0FCF8A3
:103D8000022853D130001FF003F907233200070047
:103D900029002000FFF7D4FD029B0600DB044DD56F
:103DA0001F233A0029002000FFF7A0FDF100039B2C
:103DB000029E80011E433143F826F6003040BCE6E7
:103DC000B20200001A03000030BF00002902000008
:103DD000F820030072B600003D02000062B6000049
:103DE000B2210300F0BF0200BE020000AA020000E0
:103DF0001A020000FC210300FB2103003602000030
:103E0000170200008D0200008F020000EB0200008C
:103E1000EE02000084150300002390E701238EE7E3
:103E2000019B8CE703238AE7042388E72A0045499E
:103E300045480AF0BFFE636A1860D8E66B46082260
:103E40009B5E002B07DA3E233A0029002000FFF793
:103E50004DFD4008AAE77C233A0029002000FFF727
:103E600045FD8008A2E7019B032B00D0BFE6374B3E
:103E70009E4222D100263A68072329002000FFF73E
:103E80005FFD7A680190072329002000FFF758FDA5
:103E90001F230290BA6829002000FFF727FD019F29
:103EA000029B374381013943DE0031430BE6802614
:103EB0003601E0E780267601DDE7A6239B009E42DF
:103EC000F5D0783B9E42F5D0214B9E422BD1C026A7
:103ED00007233A6829002000FFF732FD07230190ED
:103EE0007A6829002000FFF72BFDBA687601137865
:103EF00002900A3B0F2B0DD8072329002000FFF763
:103F00001FFD029BD900019B194331430F00810122
:103F10003943D8E58023DB001E4329000723200016
:103F2000FFF7E4FCEDE7BC239B009E4200D05EE679
:103F3000D026CDE707490448646A20F087FD206059
:103F4000DFE5C04687210300F0BF020097020000B2
:103F500017020000E7210300F7B50E00070011006B
:103F600030001FF009F80025040004281ED97C6ADF
:103F70001349144820F06AFD206000242000FEBD93
:103F800073780002184320F0BDFD0236019025F041
:103F9000B1F8022811D1019B1B78722B0DD1019B26
:103FA0005A782B0030339A4207D10135A542E5D02B
:103FB00030780A38C3B20F2BE2D97C6A0249D8E7BD
:103FC00022210300F0BF020055210300002803D086
:103FD000012807D0002004E08B680448002B00D1A2
:103FE000034870478B685B001843FAE710AE020085
:103FF00008AE0200074B02680B6000238B60CB60A9
:10400000054B48609A4202D143681B0A8B60080046
:104010007047C046309C0200049D0200F8B57F2620
:104020000D0001790400314017004020002200F00B
:10403000B5FAA168020041430C48E36884462B604E
:104040006960217900200E40AE60266866450BD17C
:1040500049B2814202DB0130B90705D46068000A29
:10406000424300209B182B60F8BDC046049D02000F
:10407000F8B5002207000D000100402000F08EFA84
:10408000060010201DF095FC084B0400012F00D005
:10409000074B2800277123606368A560DBB270437B
:1040A00063601DF086FCE0602000F8BDC89C020043
:1040B0008C9C02007FB504000122080001A905F0D4
:1040C000FDFC00222179402000F068FA0100050083
:1040D000029815F06BFF636806001A0A824218D234
:1040E000A368C1186943E0681DF081FC6368E06063
:1040F000DBB22A00A06863606843E3687243181863
:10410000019924F087FFA36804489E19A66004B0B3
:1041100070BD121A1202DBB21343EAE7F8EA02009A
:10412000F7B5FF27456804000191BD431DD1017912
:104130002A00402000F032FA636806003B408027E6
:10414000A1683F011F43083141436760E0681DF0EB
:104150004EFC6368E0601A0AA368013A01337243B7
:104160005E432900801924F071FF2079019BA26829
:10417000E16800F0B3FBA36803480133A360636800
:10418000013BFF3B6360FEBDF8EA020070B505002D
:1041900086B0161E03D10024200006B070BD032493
:1041A00080680C4045D1354B0A689A4241D103AA38
:1041B00001F052F9002802D1314807F073FB042EB8
:1041C000EAD17F23297922001940402000F0E6F946
:1041D0002C4B2A6806009A4215D110201DF0E9FBED
:1041E0000300040007CD07C32A681A6063680399B7
:1041F0001B0A5B181A026368DBB213436360049BFB
:104200005B1AA360C8E7049B0093039B0193019A88
:10421000009B2879991AFFF72BFF0399049A040051
:10422000521A72434E43E968C068891924F0F2FEBD
:10423000B2E70A0000230100286805F05DFB114980
:10424000020028682B7988420ED16968090A521841
:10425000042E0BD07F2B9ED97F20E96818403300B5
:1042600000F03CFB084C97E7042EF5D17F20E9686D
:10427000184000F0FBF904008EE7C046E0E10200C0
:10428000341B0300049D0200F8EA020070B506002A
:104290008AB00C00150012285CD003D8052826D05F
:1042A000002454E01B2800D170E01F28F8D101221F
:1042B00007A928001EF0DDFE0323002853D01C426E
:1042C00013D13D4B22689A420FD1012204A920004C
:1042D000FFF7A4FE0123079A00930599089B049811
:1042E0001DF0B2FB354C002831D1354C2FE00122B6
:1042F00004A92000FFF792FE2800012207A905F07B
:10430000DDFB069B002203936B464020197B00F0E7
:1043100045F901000600089815F048FE069BA168C3
:1043200003936B4641180500187BFFF7A1FE059B20
:1043300004001A000499C068039324F06BFE2A005D
:104340000598E36872431818079924F063FE20006B
:104350000AB070BD1B4B0A689A42A1D02900200008
:10436000FFF7A8FEF3E7EA070DD41D4203D1164B71
:104370002A689A4207D003232B40022BB5D1134B56
:104380001D40062DB1D0124807F08CFA012204A975
:104390002000FFF743FE012207A928001EF069FE56
:1043A0000028A2D0089B059A00930499079B30002F
:1043B0001EF07AF896E7C046C89C020010AE0200D4
:1043C00008AE0200049D0200B4ED0200070080FF69
:1043D00038BC0300F0B5050087B00E00012808D0F6
:1043E0008B0726D10B68264A934202D0254A934276
:1043F0001FD1012203A930001EF03BFE002818D077
:1044000000222900402000F0C9F8010007000498AC
:1044100015F0CCFD060001002800FFF729FE320050
:1044200004007A430399C06824F0F4FD200007B02B
:10443000F0BD300005F0A2FA071E00D04710390089
:104440002800FFF715FE00210400300006F008FCEC
:1044500000260090009806F065FC031EE6D0002FB1
:1044600004D119002000FFF75BFEF3E7721C0192F4
:10447000E1683200280000F031FA019EEAE7C04608
:10448000AC970200C89C020070B50E7904000D00C4
:10449000012E0DD1194920F008FD3300AA68E96802
:1044A0002000FCF77BFF1649200020F0FEFC70BDC9
:1044B0003200144920F0BAFDAB68002BF3D012494A
:1044C000200020F0F2FC0026AB68B34204D80F496C
:1044D000200020F0EAFCE6E7002E03D00C49200083
:1044E00020F0E3FC3200E968287900F0BFF80122EF
:1044F0000100200005F058F80136E5E747230300E6
:1045000097610300532303005E230300B0210300DF
:10451000F520030037B50C00110000221D000092A9
:104520000123200009F060FF002C05D121000120AB
:10453000FFF79EFD040016E02968CB0705D48B0722
:1045400013D10C4B0A689A420FD1080005F0FCF811
:10455000010005000120FFF78BFD2A000400002167
:10456000C06824F073FD20003EBD0120FFF732FF3C
:10457000E0E7C046B4ED020070B5060010200D0063
:1045800014001DF016FA044B067103604368856041
:10459000DBB24360C46070BD049D020010B53E28CC
:1045A00003D040282ED03C2813D1532924D013D82F
:1045B0004C2921D007D8482950D049291CD042295C
:1045C00007D1012348E04F2903D3502914D9512999
:1045D00047D0254806F074FF68293FD006D86429E3
:1045E0003FD0662908D06229F3D1EAE76C2903D0CD
:1045F000712936D06929ECD101230420002A00D08A
:10460000136010BD512926D010D849290CD006D8E6
:104610004229D6D0482918D00129DAD1D1E74C292E
:1046200002D0D6D34F29D4D30423E6E76629FBD0A2
:1046300006D86229C5D064290DD05329F4D0C8E723
:104640006929F1D003D86829C3D1022304E06C2979
:10465000EAD07129BDD108231800CFE70123022039
:10466000CCE701230820C9E76223030010B55128D5
:104670003DD011D849282ED007D8422803D0482849
:1046800026D0012806D18B5C10E04F284BD017D8DC
:104690004C2820D0002309E0682816D00AD86428C6
:1046A00036D066282AD06228F4D18B5601205B00D0
:1046B000184314E06C2803D0712811D06928E9D17F
:1046C000920050581DF06FFE09E05200535EEDE776
:1046D0005200535AEAE7920050581DF07FFE10BD79
:1046E000D2008A18106851681DF04EFEF7E7D2001C
:1046F0008A18106851681DF062FEF0E703239200EB
:1047000050589843030002201843084BC018E6E7AE
:10471000D2008A181068516818F0FAFB03230200CF
:104720009A431300EFE792005058D8E700008080CA
:10473000F7B51700156801AA04000E00FFF72EFF59
:10474000402C05D1019B043C5A1EAA185D4215401D
:104750005A213E3C62426241B14289412B183B6082
:10476000D2B22B0049421DF08DFC04000D004F2EEB
:1047700008D0532E07D124F0BDFC002201002000F8
:10478000FCF7A6FEFEBD662E06D103230224984345
:10479000154B2043C018F5E7642E06D118F0B8FB7E
:1047A0000323040002209C43F2E75A2E0FD98022F3
:1047B0000023D20512196B41002B04D1002A02DB21
:1047C0001DF0F1FDDEE729001DF0DEFDDAE700292E
:1047D00005D1064B984202D81DF000FED2E7290011
:1047E0001DF0EDFDCEE7C04600008080FFFFFF3FDB
:1047F000F0B589B0160005AA02931C6801900F005D
:10480000FFF7CCFE019B0500402B06D1059B5A1EED
:10481000A2185C423C2314400193029A631913606E
:10482000019B3E3B03935A425341DBB20293642FF8
:1048300012D0662F0BD04F2F2AD12800042D00D97B
:1048400004203300220002991DF045FC2CE03000CA
:1048500004F0DEFF0600F0E7300004F0D9FF18F0A6
:1048600005FB029B0690079108AA9B00D318083B02
:1048700022001B68029904201DF02DFC039B0434C8
:104880005A1E934108AA9B00D318083B1E68D4E720
:10489000B3070BD1104B32689A4207D123002A008C
:1048A000029930001DF04CFD09B0F0BD300004F05D
:1048B0004BFF0600042DC0D900215A2F02D988428F
:1048C00000DAFF312A00200024F0C0FB019B3E2BC0
:1048D000B3D12B1FE418B0E7B4ED0200F7B5060022
:1048E0000F0014001D0064280DD0662804D04F2846
:1048F00013D19400E35105E0940018000F1904F05F
:1049000087FF3860F7BD180004F082FF18F0AEFA98
:10491000E4003F1938607960F4E703232B400193EA
:1049200011D10E4B2A689A420DD1019A0100402004
:10493000FFF734FE230043430200FB1801992800CF
:104940001DF0FEFCDEE7280004F0FEFE220003005E
:10495000390030001DF0D2FBD4E7C046B4ED0200B0
:104960000122010003001140100000290CD10800B1
:10497000990709D11B68054910008B4204D00448EF
:10498000181A43425841C0B27047C046B4ED020005
:1049900018AE02000023FA21094A89001360094A6F
:1049A0001370094A1360094A1160094A1370094AD1
:1049B000111D0832D3670122CB67074B1A7070476D
:1049C000D0010020112E0020CC010020100000207A
:1049D000122E00207C2E0020132E002010B5084B34
:1049E000084A1978002907D1916C002902D0FFF7F5
:1049F000D1FF10BD30BFF4E700221A70F9E7C046BE
:104A0000132E00207C2E0020837F0248002B00D133
:104A10000148704710AE020008AE02000023A02239
:104A2000E02110B583770C4BD2050902D1500B4819
:104A300003F040FA0A4803F03DFA0A4803F03AFA54
:104A4000094803F037FA094803F034FA084803F03C
:104A500031FA084810BDC0460C05000024E00200F1
:104A60002CE002003CE0020044E0020054E00200BE
:104A7000CCDF0200F8EA0200F8B5164C2368002BE0
:104A800007D1482024F05CFA0500134912F07CFE9F
:104A900025601248124902680B68D21A0123312A94
:104AA00004D9623393429B415B42023300220126C8
:104AB0000C4D2E702F78032FFCD101329342F8D188
:104AC000036820680B6023F008FC430001201843B2
:104AD000F8BDC046D4010020409D0200782E002081
:104AE000D8010020142E002030B50D4C87B023785B
:104AF000012B13D10B4B02221D680621002302A8B3
:104B000022F074FD082204A9684624F083FA039B6E
:104B1000029A280012F0B4FD0223237007B030BDC2
:104B2000142E0020D4010020A02010B51049C0058B
:104B30004B7F5A1C002B09D14C8C0E4BA3430E4CBF
:104B400003510E4B4A775200D05A0FE010335B00EE
:104B5000CB185C88A123DB00C450092AF1D10120C5
:104B6000FBF7FCFDFFF7C0FF0120404210BDC0462F
:104B700014000020F01F00000C0500009C1503002D
:104B800073B5041E09D11A4D2B78002B2CD019496E
:104B900019481DF0F2FA2C7073BD184D2B1DDE6FF5
:104BA00004F0EAFC164B2100984214D0154B234028
:104BB000062B05D0A30712D1134B22689A420ED1BF
:104BC00001A92000FDF7DCF8019B012B0CD1007836
:104BD0001FF094FD010030001DF0CFFADCE70B4917
:104BE0000B481FF033FFA864FFF7D4FED4E7C0469C
:104BF000122E00200CB90200140000207C2E002090
:104C00006CB90200070080FF04B50200DB2303003B
:104C100068C00200F7B5A123A021214AC905DB0025
:104C2000CA500123C27F0D3293401E4A8B50C37F6E
:104C300001920133DBB2032B2FD0C37702000300B4
:104C4000002122333632198002339342FBD10424EF
:104C5000C17F154F4D000522EB5D7E195343134A6A
:104C60007678D3189B190126A640B44662461B7974
:104C700001345B00C3185E8C063516435E840D2C30
:104C8000E9D101220D318A40A023A121DB05C90011
:104C90005A50828E01995A50F7BD0023CDE7C04685
:104CA000F01F00000C0500006F230300140000201B
:104CB00070B5394B8CB01A78022A07D1A022374937
:104CC000D2008A58012A07D003221A70344DAB7FD4
:104CD000002B03D1FFF708FF0CB070BD2800FFF7D1
:104CE00099FF304A304913680968063313608B42D4
:104CF00007D300242D4B14601B78012B0FD0022BFF
:104D000045D000232A8C6B77FF33FF331A42E1D062
:104D1000E1222749D2000120FBF7ECFCDCE7254E1D
:104D2000331DDB6F002B04D033000833DB6F002B07
:104D300002D1FFF72FFEE4E70EF0D6F8684609F03F
:104D400081FA00280CD11C4B186805F0C3FF040041
:104D500009F096FA0EF0D2F82000FFF711FFD0E725
:104D60000EF0CCF8019B154918680FF06BF800287D
:104D7000F2D1019804F000FC114B984203D1114983
:104D8000114820F053F9019B0024B364E4E70F4974
:104D900028001DF0F2F9CCE7142E0020007000402E
:104DA00014000020CC01002010000020112E002053
:104DB000294B00007C2E0020D0010020B4BF02004F
:104DC0004CBE020015240300CCDD02000CB9020029
:104DD000F0B5002485B0154D02930AAB1B782E1D4B
:104DE000070008350800210001920393F467EC677F
:104DF00005F036FF0E4B019A18600E4BF7671A60EC
:104E0000029A0D4BE8671A700C4B1C7005F062FF9C
:104E1000FFF7B6FE01220A4B1C600A4B1A70039B77
:104E2000A34201D0FFF7DAFD05B0F0BD7C2E0020D3
:104E3000D001002010000020122E0020132E002090
:104E4000CC010020112E0020F0B50024384B8FB08B
:104E50001D1D0833DC67374BEC6709AD80C901388D
:104E600001950093052309F0EFFA6B68099C049300
:104E700007942B7B2E7A05932B7C20000393FFF75E
:104E80006FFD2D4D002806D103232340022B09D1AD
:104E90002C40062C06D007AB002201212748FCF746
:104EA00061FB079007980540062D05D0830730D198
:104EB000224B02689A422CD108A9FCF761FF089B9B
:104EC000002B23D0012B0DD1002E0BD1039B002BE7
:104ED00008D100781FF012FC0790079938001DF0E8
:104EE0004CF913E0079808F07DFF079009AB1B7C95
:104EF000002B03D007980DF053FF0790059B049AF1
:104F00000093079933003800FFF762FF0C480FB099
:104F1000F0BD04F031FB0B4B9842E7D1002E02D1DB
:104F2000039B002BD9D007A9012000F031FFDCE75B
:104F30007C2E0020EC9D0200070080FF04B50200DB
:104F4000F8EA02006CB9020070B51B4B8AB005ADDF
:104F500040C9013800930195052309F075FA059CB5
:104F600020000494FFF7FCFC002807D10323234012
:104F7000022B0AD1114B1C40062C06D004AB002298
:104F800001210F48FCF7EEFA049003A90498FCF7FE
:104F9000F7FE2A7C2B7B03990092059A08F00CFF00
:104FA0002B7A01000093300000236A68FFF710FF9E
:104FB00004480AB070BDC046149E0200070080FF7E
:104FC00004B50200F8EA02000022074B10B51A707F
:104FD000064B02321A70064B064A1B68063B1360EA
:104FE000FFF7FCFC10BDC046132E0020112E002040
:104FF00010000020CC01002010B5FFF7E5FF0148AC
:1050000010BDC046F8EA020010B5042901D8042AF0
:1050100002D9094806F054FA092B01D90748F9E7E3
:105020000524614341188A18137101229A40038CA8
:105030001343038410BDC046E8230300FC23030090
:10504000F8B548680C000D6804F07EFB0600A06807
:1050500004F07AFB0700E06804F076FB3A000300F6
:1050600031002800FFF7D0FF0048F8BDF8EA020041
:1050700010B5042901D8042A02D9044806F020FA00
:105080000523594340188018007910BDE823030018
:1050900070B5104C050021000F4802F021FF2100DF
:1050A0000E4802F01DFF21000D4802F019FF2100FB
:1050B0000C4802F015FF21000B4802F011FF2100FF
:1050C0000A4802F00DFF1DF0DEF801230848AB7717
:1050D00070BDC046C4AA020024E002002CE0020019
:1050E0003CE0020044E0020054E00200CCDF020099
:1050F000F8EA0200F8B5050010200C001F001600A9
:105100001CF057FC054B44608460A4190760C46020
:105110006B60034B2860AB60F8BDC046A122020063
:10512000B722020010B510201CF043FC0400034B12
:1051300008C020F096F8200010BDC046B4ED020073
:1051400070B50C00052804D814F01CFF06030C04ED
:10515000131C0024200070BD8B680E4C002BF9D16D
:105160000D4CF7E7081D20F0E3FC01244000044348
:10517000F0E7FFF7D7FF211D0500043020F0FEF90E
:105180002C00E7E7FFF7CEFF211D0500043020F0DB
:1051900005FAF5E710AE020008AE020070B5050092
:1051A00083070CD1104B02689A4208D1FFF7BAFF6F
:1051B000291D0400043020F0D6F9200070BD28001D
:1051C00004F0C2FAC0231B06984206D180200021B9
:1051D000C0051DF0D9F80400EFE70124C317C0187B
:1051E000584040000443E8E7B4ED020007B5C307A8
:1051F00001D540100EBD043001A90BF075FD00284B
:1052000001D00198F6E7024902481EF011FDC046A0
:105210005B2403003CBF0200F0B58BB0019001207D
:105220000D00170008402BD04B10022203A904A840
:1052300020F04FF804AEFB072BD57B10022203A908
:1052400004A820F046F804AD019B092B01D0162BD1
:105250003FD16B68002B68D0300020F0C4FC041CE8
:10526000280020F0C0FC011C201C15F021FB0323AA
:1052700002249843704B0443E41820000BB0F0BDA7
:1052800003240C4023D16D4B0A689A42F5D10E1DC0
:10529000D1E703231F4205D1684A3968914201D101
:1052A0003D1DD1E73B40022B0CD1654B3B40062B0B
:1052B00008D0300020F097FC3A00011C01980AF059
:1052C00031F804E03A00290001980FF057F8040083
:1052D000D3E7019B182B00D98AE0FFF723FF0400D6
:1052E000019814F04FFE444A3E50500D13191F729E
:1052F000336572444A3E50500D13191F72336500D6
:10530000201D2A00310020F0E1F9B6E7201D2A0017
:10531000310020F015FAB0E7201D2A00310020F0FE
:1053200042FBAAE76B68002B03D1464946481EF0B2
:105330007FFC07A81FF095FF2B003200201D07A956
:105340000BF06CFB07A81FF091FF96E76B68002B32
:10535000EBD007A81FF085FF211D2B00320007A806
:10536000EEE7201D2A00310020F02BFA85E7201DF2
:105370002A00310020F0A1FA7FE7201D2A00310029
:105380000BF0D6FA79E73800FFF730FF021E02DA99
:105390002E4806F095F8019B201D3100032B01D00B
:1053A000102B02D10BF05CFA67E720F02EF964E7CE
:1053B0006B68002B03D02B78DB0700D579E7201D25
:1053C0002A00310020F072FB57E76B68002BACD04D
:1053D000FFF7A8FE0700211D04302B0032000BF060
:1053E0001DFB07A902200797089400F0D1FC6EE787
:1053F0002900300020F094F80300019800241938A7
:10540000042800D939E7124C14F0BCFD0308120B34
:105410000F00002B00DB30E70E4C2EE7002BFBDCEF
:105420002BE7002B00DD28E7F6E7002BF4DA24E772
:10543000002B00D021E7EFE700008080B4ED0200F0
:10544000070080FF352403001CC10200462403002E
:1054500008AE020010AE0200F0B585B005001600DF
:10546000080003AB02AA01A920F073FC0398364F91
:10547000B84209D0032807D004F066F9B0600028CC
:1054800004D1324806F01CF80123B3600198B842F9
:1054900029D10024B368A34200DC6C1E0298B842F4
:1054A00025D1B368002B47DD2800002C2ADA6419C7
:1054B00001D5B368DC17002834DA401901D5012082
:1054C0004042B368002B00DA0130B368002B2DDDB9
:1054D000A04200DA2000013B706058425841C0B23F
:1054E000346005B0F0BD04F02FF90400D6E704F0F5
:1054F0002BF9B368002801DBDA0F8018002CD6DB0B
:10550000002B03DDAC42D6D92C00D4E7002BD2D03F
:10551000A54200D86C1E002804DA4019D4D5012019
:105520004042D1E7A842D0D92800CEE7002BD2D004
:10553000A042D0DD601CCEE7002C01DA0020B6E7E7
:1055400000208342E4D1C0E7F8EA02008824030087
:10555000F0B5060085B017001B2805D10A9A9742BE
:1055600009D0002005B0F0BD19281AD01C281AD087
:105570000A9A0A9717001A000B0011000A9A019262
:10558000BA4200D901971D000C0000230093009B34
:10559000019A934209D10A9BBB4220D0E1D301205A
:1055A000E0E71A26EAE71D26E8E70295039401CD15
:1055B00002CC04F077F8002802D0009B0133E5E725
:1055C0001B2ECED0039B30001A68029B196805F091
:1055D0007FFF044BC01A43425841C0B2C2E71A2EA3
:1055E000DDD1BEE710AE0200F0B51E0085B003901D
:1055F00018680D00170003F0BFFF73680190029355
:105600000024022F0ED90123B268290004F074F996
:105610000400032F06D029000123F268019804F04A
:105620006BF90500A54202D8084805F049FF039A26
:10563000A3000299D05804F035F8002801D10134B4
:10564000F0E701206400204305B0F0BDA224030070
:10565000F0B5304B8FB007AE01380093043107230B
:10566000019608F0F1FE0023B0682B4F0393B84277
:1056700003D004F069F8C3B2039370691825B842E7
:1056800002D01FF0ECFC45B2B0691924B84202D038
:105690001FF0E5FC44B23069B8420DD005AA0221E2
:1056A00004F016F9059B18681FF0D9FC059B45B25C
:1056B00058681FF0D4FC44B201210E00A022AE4075
:1056C000A140164BD205D75815483E430590D650F9
:1056D000D6588E43D650134A03218550C450280013
:1056E00023F091FB2000032123F08DFB079905A8EF
:1056F00014F05CF80A9B039A089905A814F066F860
:105700000799094814F0DCFC084B01301880024866
:105710000FB0F0BD2C9F0200F8EA02001405000053
:10572000002000400C050000C8320000C22D0020FF
:1057300010B5FAF76FFD034B002800D1024B18009B
:1057400010BDC04610AE020008AE0200F7B50D0055
:1057500014001E00002A07D0FAF75CFD002805D1CE
:105760000B230124336064422000FEBD2E002F195C
:10577000FAF75CFD741C3070BC4213D00A4B1B88D6
:1057800000931CF010F80190FAF744FD2600002861
:10579000EED11CF008F8019BC01A009B8342F3D89D
:1057A000641BE1E73C00FBE7C22D0020054B10B570
:1057B000186822F0E4F8044B002800D1034B1800CD
:1057C00010BDC046B42A002010AE020008AE020090
:1057D00010B5034B186822F0DAF8024810BDC04635
:1057E000B42A0020F8EA020010B5034B186822F032
:1057F0003CF91CF0D8FD10BDB42A002010B5034BB5
:10580000186822F039F91CF0CEFD10BDB42A002032
:1058100010B5034B186822F036F91CF0C4FD10BD1A
:10582000B42A002010B5034B186822F0E1F81CF0F0
:10583000BAFD10BDB42A002030B593B0FAF7A8FE27
:10584000184C200022F0E1FC174D286811F0CEF929
:10585000200022F0DFFCFAF78BFE1CF014FD1CF098
:1058600075FE0400296803A822F07FF80F4B200082
:105870000A93039B0B93049B0C93059B0D93069B30
:105880000E93079B0F93089B1093099B0193119311
:105890001DF014FC200020220AA904F031F904486C
:1058A00013B030BDBC2A0020B42A002055BA11C064
:1058B000F8EA0200F8B5114D0400286822F05FF8FC
:1058C000002802D12000FFF7B7FF0D4B1B78002BFB
:1058D0000DD10C4E3478E4B2002C08D10127286891
:1058E000377003685B689847054B34701F702868F1
:1058F00011F058FA1CF057FDF8BDC046B42A00203C
:10590000152E0020162E0020F0B58DB01CF01EFEC6
:105910000E4B02689A4217D10469416808944469A1
:105920008268C36809948469C0690A9484466C4695
:1059300005910692079308A8E0C8E0C4604620607D
:105940000348006821F0FBFF0DB0F0BD55BA11C04F
:10595000B42A002070B5040003F00EFE00230C49A9
:10596000DA0052181568A54205D1516809481FF0A0
:105970009CFA012070BD0133612BF1D1064B9C4292
:1059800003D0984201D00020F4E70449EEE7C04676
:1059900048A00200CCDD0200AC930200B924030051
:1059A00070B5050014001CF014FE024B2560636006
:1059B00070BDC0469B25020010B50C007F2906D89B
:1059C00001211CF046FE002800D0047010BD224BBF
:1059D000994210D802211CF03CFE0028F6D040234A
:1059E000A2095B42134303703F2323408024644297
:1059F0001C434470EAE7194B994214D803211CF068
:105A000028FE0028E2D02023220B5B4213433F21D3
:105A100080220370A30952420B400C4013432243DF
:105A200043708270D2E704211CF013FE0028CDD011
:105A30001023A20C5B4213433F2103708023220BEF
:105A40005B420A401A434270A2090A400C401A43C2
:105A50001C438270C470B9E7FF070000FFFF00001D
:105A600007B5034B0090684601930AF029FC07BD77
:105A70009B250200A3230021024A5B000248D15269
:105A80007047C0467C2E0020F8EA0200A3230121C3
:105A9000024A5B000248D1527047C0467C2E00206B
:105AA000F8EA0200A323044A5B00D35A0348002B00
:105AB00000D103487047C0467C2E002010AE020083
:105AC00008AE020010B50DF021F9014810BDC04626
:105AD000F8EA020010B50C4C002808D1FC34236D04
